:020000040800F2
:10000000982D00207D4E0008DD4E0008DD4E0008D2
:10001000DD4E0008DD4E0008DD4E00080000000047
:10002000000000000000000000000000DD4E00089D
:10003000DD4E000800000000DD4E0008D549000834
:10004000DD4E0008DD4E0008DD4E0008DD4E0008E4
:10005000DD4E0008DD4E000825490008DD4E000891
:10006000DD4E00084949000875540008DD4E0008BF
:10007000DD4E0008DD4E0008DD4E0008DD4E0008B4
:10008000DD4E0008DD4E0008DD4E0008DD4E0008A4
:10009000A52D0008014B0008DD4E0008995400080A
:1000A000DD4E0008DD4E0008DD4E0008DD4E000884
:1000B0006D490008DD4E0008DD4E0008DD4E0008E9
:1000C000DD4E0008DD4E0008DD4E0008DD4E000864
:1000D00061530008C12D00082D1B0008DD4E0008EB
:1000E000BD540008DD4E0008B12D000800000000DE
:1000F0000000000000000000000000000000000000
:1001000000000000000000005FF808F110B5054C89
:10011000237833B9044B13B10448AFF300800123B3
:10012000237010BDCC0500200000000040790008BD
:1001300008B5064B1BB106480649AFF300800648D8
:10014000036813B1054B03B1984708BD00000000D8
:1001500040790008D0050020C805002000000000FC
:1001600080B582B000AF1020012104F00FFE4FF4E3
:100170008043BB801023FB710323BB713B1D0F48E1
:10018000194603F025FF0D484FF4804103F0F6FFB8
:100190004FF4967006F070FA08484FF4804103F06F
:1001A000FBFF4FF4967006F067FA04484FF4804165
:1001B00003F0E4FF0837BD4680BD00BF00100140DA
:1001C00080B582B000AF1020012104F0DFFD0323D1
:1001D000BB711023FB714FF40053BB803B1D0348E0
:1001E000194603F0F5FE0837BD4680BD00100140FA
:1001F00080B500AFFFF7B4FFFFF7E2FF0C4803F054
:10020000FFFB0C484FF4005103F0B8FF4FF47A7035
:1002100006F032FA07484FF4005103F0BDFF0648DC
:1002200003F0EEFB4FF47A7006F026FAE6E700BF23
:10023000A46C000800100140AC6C000880B58AB0C6
:1002400000AF78600820012104F0A0FD02233B816B
:100250001023FB720323BB7207F108032F481946D2
:1002600003F0B6FE2D48022103F096FF2C48012131
:1002700003F0B2FF0920012104F088FD4FF4006370
:100280003B811823FB720323BB7207F10803234849
:10029000194603F09DFE4FF0804001F065F8012003
:1002A000012104F091FD07F11C03184601F056FAF4
:1002B00041F61F433B840023BB8307F11C034FF02F
:1002C0008040194601F066F907F10C03184601F069
:1002D0005FFA6023BB810123FB817B684FF4E1520D
:1002E00002FB03F30F4A82FB03125211DB17D31AEE
:1002F0009BB27B8207F10C034FF08040194601F05E
:10030000C5F94FF08040012101F064FA4FF08040C0
:10031000012101F07FFA2837BD4680BD000C014065
:10032000000218001F85EB5180B500AF02484FF462
:10033000005103F031FF80BD0010014080B584B052
:1003400000AF786039607868FFF778FF10200121EE
:1003500004F01CFD4FF40053BB811023FB730323F7
:10036000BB7307F10C030848194603F031FEFFF791
:10037000DBFF064803F06EFB054B3A681A6018462F
:100380001037BD4680BD00BF00100140106D000851
:10039000680F002080B500AF134B00221A6013488D
:1003A00003F058FB5A200021FFF7C8FF104803F064
:1003B00051FB10484FF4005103F0E0FE0E480221BB
:1003C00003F0EAFE4FF4FA7006F056F90A480221EB
:1003D00003F0D4FE4FF4FA7006F04EF94FF4FA70C1
:1003E00006F04AF9EAE700BF680F0020206D000818
:1003F000306D000800100140000C014080B582B053
:1004000000AF0346FB80FB88002B05D1084B1B681F
:1004100001221A82002306E0064B1B681B689847DE
:10042000034B1B680A3318460837BD4680BD00BF22
:10043000B01C0020AC1C002080B500AF0F4B1B6827
:10044000DA780F4B5B789A4215D80C4B1B689B7877
:10045000002B10D1094B1B689B88002B0BD1074B3D
:100460001B68064A1268D2789A72064B1B685B6852
:100470009847002300E00223184680BDB01C0020EE
:10048000B0000020AC1C002080B582B000AF034655
:10049000FB80FB88002B05D1084B1B6801221A82C8
:1004A000002306E0064B1B689B689847034B1B68BC
:1004B0000C3318460837BD4680BD00BFB01C002075
:1004C000AC1C002080B582B000AF1E4B1B689B693E
:1004D0001D4A126851791C4A1268D27808461146A2
:1004E00098470346FB71184B1B689B7A002B23D05F
:1004F000FB79002B09D1144B1B681B79002B04D10D
:10050000114B1B689B78002B01D0022315E0FB796F
:10051000002B11D10D4B1B68DB6898470A4B1B68F9
:10052000094A12685279DA72074B1B68064A126848
:10053000D2781A73002300E0022318460837BD461C
:1005400080BD00BF881C0020B01C0020AC1C002017
:1005500080B584B000AF0346FB80FB88002B05D13B
:10056000464B1B6802221A82002383E0444B002280
:100570001A80424B1B681B7803F07F03002B2CD1A1
:100580003E4B1B685B7AFB73FB7B03F02003002B65
:1005900007D03B4B1B7843F00203DAB2384B1A709A
:1005A00006E0374B1B7823F00203DAB2344B1A70A3
:1005B000FB7B03F04003002B07D0314B1B7843F04B
:1005C0000103DAB22E4B1A704FE02D4B1B7823F04B
:1005D0000103DAB22A4B1A7047E0284B1B681B78DC
:1005E00003F07F03012B01D1254B43E0234B1B6814
:1005F0001B7803F07F03022B35D1204B1B685B79FE
:10060000BB73BB7B03F00F037B73BB7B5BB2002B25
:1006100013DA7B7B9B0003F1804303F5B8431B682F
:100620009BB203F03003102B1CD1154B1B7843F009
:100630000103DAB2124B1A7017E07B7B9B0003F1C7
:10064000804303F5B8431B689BB203F44053B3F5F2
:10065000805F07D10A4B1B7843F00103DAB2084BE5
:100660001A7002E001E0002304E0064B1B681B69DE
:100670009847034B18461037BD4680BDB01C00207C
:10068000800F0020AC1C002090B587B000AF6F4BEE
:100690001B681B7803F07F033B613B69002B0AD189
:1006A0006A4B1B68694A1268527A22F02002D2B261
:1006B0005A720023C6E03B69022B40F0C280634BB4
:1006C0001B685B88002B04D1604B1B681B79002BD7
:1006D00001D00223B6E05E4BFB605C4B1B685B798C
:1006E000BB60BB6823F080037B607B683B60574B3B
:1006F0001B685B79DBB25BB2002B0BDA3B689B00BB
:1007000003F1804303F5B8431B689BB203F0300349
:100710007B610AE03B689B0003F1804303F5B8432B
:100720001B689BB203F440537B61FB681B781A463D
:100730007B689A4207D97B69002B04D0434B1B6826
:100740009B7A002B01D102237CE0BB6803F080037D
:10075000002B17D03B689B0003F1804303F5B8439F
:100760001B689BB203F03003102B64D13B68DBB2F3
:10077000184602F0FBFC3B68DBB21846302102F061
:10078000E3FB58E03B689B0003F1804303F5B8436B
:100790001B689BB203F44053B3F5805F4BD13B68B9
:1007A000002B26D13B68DAB22A4B93F82C30104646
:1007B000194602F09DFD3B689B0003F1804303F561
:1007C000B8431B689BB223F4804323F070039CB2B0
:1007D00084F480539CB284F400539CB23B689B0029
:1007E00003F1804303F5B8431B4A224392B21A60D7
:1007F00021E03B68DBB2184602F08AFC3B689B00B4
:1008000003F1804303F5B8431B689BB223F4804394
:1008100023F070039CB284F480539CB284F40053A0
:100820009CB23B689B0003F1804303F5B8430A4A3E
:10083000224392B21A60094B1B685B6998470023F8
:1008400000E0022318461C37BD4690BDB01C0020B6
:10085000B0000020B40000208080FFFFAC1C00200E
:1008600090B585B000AF404B1B685B79BB60BB683F
:1008700023F080037B607B683B603B4B1B685B79AC
:10088000DBB25BB2002B0BDA3B689B0003F18043C9
:1008900003F5B8431B689BB203F03003FB600AE02A
:1008A0003B689B0003F1804303F5B8431B689BB290
:1008B00003F44053FB602D4B1B781A463B689A4269
:1008C0000CD9294B1B685B88002B07D1FB68002BD8
:1008D00004D0254B1B689B7A002B01D102233EE0FC
:1008E000BB6803F08003002B1AD03B689B0003F128
:1008F000804303F5B8431B689BB223F4E04323F025
:1009000040039CB284F010039CB23B689B0003F14F
:10091000804303F5B843164A224392B21A6019E0A5
:100920003B689B0003F1804303F5B8431B689BB20F
:1009300023F4804323F070039CB284F480539CB270
:100940003B689B0003F1804303F5B843084A224308
:1009500092B21A60074B1B689B69984700231846A0
:100960001437BD4690BD00BFB01C0020B000002071
:100970008080FFFFAC1C002080B500AF074B1B68D8
:10098000064A1268527A42F02002D2B25A72044BDE
:100990001B68DB6998470023184680BDB01C002007
:1009A000AC1C002080B485B000AF03463960FB80EA
:1009B0000D4B1B685B8AFB60FB88002B0AD10A4B3E
:1009C0001B683A689188FA6892B28A1A92B21A82BF
:1009D000002303E03B681A68FB6813441846143789
:1009E000BD465DF8047B7047B01C002080B584B024
:1009F00000AF3A4B1B681033BB60BB681B887B6041
:100A0000BB689B68002B2ED07B68002B2BD0BB686B
:100A10009B88FB60FA687B689A4201D97B68FB601F
:100A2000BB689B68FA6892B2104698473860BB680A
:100A30001A88FB689BB2D31A9AB2BB681A80BB684B
:100A40005A88FB689BB213449AB2BB685A80002054
:100A500002F016FC03461A46FB689BB23868114642
:100A60001A4605F031F8BB681B88002B0AD01C4BD6
:100A70004FF440521A800020002102F01DFC194B57
:100A800030221A80BB681A88BB689B889A4204D3BC
:100A9000124B1B6803221A721CE0BB681B88002BD8
:100AA00004D00E4B1B6805221A7213E0BB681B882A
:100AB000002B0FD1094B1B6806221A720A4B1B68C8
:100AC0009BB21A46094B13445B0000221A60054B87
:100AD00030221A801037BD4680BD00BFB01C0020F8
:100AE000F40F0020F60F0020505C00400230002080
:100AF00080B586B000AF3B4B1B681033FB60FB68D2
:100B00001B88BB60374B1B681B7A7B61BB68002B63
:100B10001ED17B69042B1BD1334B1B78002B11D0CA
:100B2000324B1B689BB21A46314B13445B000022C8
:100B30001A60304B30221A8004237B612A4B00223A
:100B40001A7046E007237B612A4B10221A8040E08E
:100B5000FB689B883B61BA683B699A4201D80423D1
:100B600000E002237B613A69BB689A4201D9BB6805
:100B70003B61FB689B683A6992B21046984778607F
:100B8000002002F061FB03461A463B699BB278687D
:100B900011461A4604F05EFF3B699BB200201946DD
:100BA00002F08AFBFB681A883B699BB2D31A9AB29F
:100BB000FB681A80FB685A883B699BB213449AB25F
:100BC000FB685A800B4B30221A800B4B4FF440527B
:100BD0001A80044B1B687A69D2B21A721837BD4664
:100BE00080BD00BFB01C0020E8050020505C004024
:100BF00002300020F60F0020F40F002080B584B0F2
:100C000000AF0223FB735D4B1B685B787B605B4B23
:100C10001B681B7803F07F03002B57D17B68092BDF
:100C200004D1FFF709FC0346FB7377E07B68052BD3
:100C30001BD1524B1B68DB78DBB25BB2002B0EDBA7
:100C40004E4B1B689B78002B09D14C4B1B689B8833
:100C5000002B04D1494B1B689B7A002B02D0082340
:100C6000BB6081E00023FB7358E07B68032B11D14C
:100C7000424B1B68DB78012B09D1404B1B689B88DA
:100C8000002B04D1FFF778FE0346FB7346E00223F6
:100C9000FB7343E07B68012B40D1384B1B68DB784A
:100CA000012B10D1354B1B689B88002B0BD1334B8C
:100CB0001B685B7A03F02003002B04D0FFF7E4FCF1
:100CC0000346FB732AE00223FB7327E02B4B1B68D0
:100CD0001B7803F07F03012B07D17B680B2B1DD101
:100CE000FFF7F0FB0346FB7318E0244B1B681B78EF
:100CF00003F07F03022B0FD17B68012B04D1FFF798
:100D0000C3FC0346FB7309E07B68032B06D1FFF7A6
:100D1000A7FD0346FB7301E00223FB73FB7B002B63
:100D20000ED0174B1B685B697A68D2B210469847A1
:100D30000346FB73FB7B032B02D10923BB6013E04B
:100D4000FB7B002B02D00823BB600DE00623BB60B9
:100D50000C4B1B689BB21A460B4B13445B000022E2
:100D60001A600A4B30221A80044B1B68BA68D2B250
:100D70001A7200BF1037BD4680BD00BFB01C0020F6
:100D8000881C0020505C004002300020F60F00203C
:100D900080B58AB000AF934B1B685B78BB610023C2
:100DA0007B6200237B61BB69062B23D18D4B1B68C3
:100DB0001B7803F07F03002B1BD18A4B1B689B78A9
:100DC000FB74FB7C012B04D1874B1B68DB697B62C6
:100DD0000FE0FB7C022B04D1834B1B681B6A7B62F8
:100DE00007E0FB7C032B04D17F4B1B685B6A7B62B3
:100DF000B6E0B5E0BB69002B79D17A4B1B685B8804
:100E0000002B74D1774B1B68DB88022B6FD1754B9D
:100E10001B681B79002B6AD1724B1B681B7803F08F
:100E20007F03002B07D16F4B1B689B88002B02D1DF
:100E30006E4B7B625AE06B4B1B681B7803F07F03A1
:100E4000012B13D1684B1B689B69664A1268527963
:100E50001046002198470346002B47D1614B1B6881
:100E60009B7A002B42D0614B7B6279E05D4B1B6823
:100E70001B7803F07F03022B38D15A4B1B685B7938
:100E800003F00F03FB60574B1B685B7903F07003A3
:100E9000BB60544B1B685B79DBB25BB2002B0BDA97
:100EA000FB689B0003F1804303F5B8431B689BB2CA
:100EB00003F03003FB610AE0FB689B0003F1804311
:100EC00003F5B8431B689BB203F44053FB61484BE6
:100ED0001B781A46FB689A4208D9BB68002B05D1DB
:100EE000FB69002B02D0414B7B6239E038E0BB69E3
:100EF000082B09D13B4B1B681B7803F07F03002BA9
:100F00002ED13C4B7B622BE0BB690A2B28D1354BA1
:100F10001B681B7803F07F03012B21D1314B1B6829
:100F20009B7A002B1CD02F4B1B685B88002B17D1A2
:100F30002C4B1B681B79002B12D12A4B1B68DB88BA
:100F4000012B0DD1284B1B689B69264A12685279E8
:100F50001046002198470346002B01D1264B7B62A7
:100F60007B6A002B0FD01F4B1B687A6992B25A82A2
:100F70001C4B1B687A6A9A617B6A002098470023A1
:100F800087F8233013E0184B1B681B69154A126859
:100F9000527810469847034687F8233097F8233055
:100FA000032B04D10F4B1B6809221A7277E00D4BFB
:100FB0001B681A8A4FF6FF739A4204D1094B1B68CB
:100FC00009221A726BE097F82330022B04D0054BEC
:100FD0001B681B8A002B11D1024B1B6808221A7256
:100FE0005DE000BFB01C0020881C002051050008F7
:100FF000B0000020FD03000889040008294B1B688D
:101000001B78DBB25BB2002B40DA264B1B68DB8817
:101010007B60244B1B681B8A1A467B689A4205D961
:10102000204B1B687A6892B21A8225E01D4B1B6820
:101030001A8A1C4B1B68DB889A421DD2194B1B680D
:101040001A8A194B1B6893F82C309A4203D2174B1B
:1010500000221A7010E0134B1B681B8A124A126898
:1010600092F82C2093FBF2F102FB01F29B1A002B69
:1010700002D10E4B01221A700A4B1B680A4A1268F1
:1010800092F82C209A82FFF733FD07E0054B1B688E
:1010900003221A72064B4FF440521A8000BF2837C1
:1010A000BD4680BDB01C0020881C0020E805002043
:1010B000F40F002090B583B000AF0123FB80304BCC
:1010C0001B689BB21A462F4B13445B001B689BB2F4
:1010D0005B0003F1804303F5C0433B602A4B1B6870
:1010E0001B7A092B37D0284B1A683B68591C39608A
:1010F0001B781370244B1A683B68591C39601B78A5
:1011000053703A68FB885B0013443B601E4B1C68BD
:101110003B689A1C3A601B88184602F049F903465E
:1011200063803A68FB885B0013443B60164B1C6885
:101130003B689A1C3A601B88184602F039F903464E
:10114000A3803A68FB885B0013443B600E4B1B682E
:101150003A681288DA800C4B1B6801221A720A4B1B
:101160001B68DB88002B02D1FFF748FD01E0FFF789
:101170000FFE00F08DF8034618460C37BD4690BDB3
:10118000505C004004300020B01C002080B582B0CC
:1011900000AF1F4B1B681B7A7B607B68022B02D061
:1011A0007B68042B06D1FFF7A3FC194B1B681B7A45
:1011B0007B6021E07B68062B1CD1154B1B685B789C
:1011C000052B10D1124B1B681B7803F07F03002BFB
:1011D00009D10F4B1B68DB78184600F081F80D4BE6
:1011E0001B681B6A98470C4B1B689B689847082331
:1011F0007B6001E008237B60054B1B687A68D2B2F4
:101200001A7200F045F8034618460837BD4680BDFF
:10121000B01C0020AC1C0020881C002080B582B0CF
:1012200000AF194B1B681B7A7B607B68022B02D0D6
:101230007B68042B02D108237B6018E07B68032BBA
:1012400002D07B68052B06D1FFF7D0FB0E4B1B6845
:101250001B7A7B600BE07B68072B06D10B4B1B686E
:10126000DB68984708237B6001E008237B60064B1E
:101270001B687A68D2B21A7200F00AF80346184660
:101280000837BD4680BD00BFB01C0020881C002070
:1012900080B500AF0E4B93F82C300020194602F0B9
:1012A00027F80C4B1B681B7A082B06D10A4B4FF40E
:1012B00080521A80094B10221A80064B1B681B7A39
:1012C000092B14BF00230123DBB2184680BD00BFE9
:1012D000B4000020B01C0020F40F0020F60F002006
:1012E00080B485B000AF0346FB711A4B1B78BB601E
:1012F0000023FB601EE0FB68DBB29B0003F1804330
:1013000003F5B843FA68D2B2920002F1804202F5C6
:10131000B842126892B2114640F60F720A4042F487
:10132000004242F08002F968C9B20A431A60FB68C1
:101330000133FB60FA68BB689A42DCD3064BFA794A
:1013400062F07F02D2B21A601437BD465DF8047BAA
:10135000704700BFB00000204C5C004080B400AF7C
:10136000BD465DF8047B704780B582B000AF786001
:101370007A68784B9A420AD14FF40060012103F059
:1013800041FD4FF40060002103F03CFDDEE07B688E
:10139000B3F1804F08D10120012103F051FD01205C
:1013A000002103F04DFDD1E07A686B4B9A4208D1E1
:1013B0000220012103F044FD0220002103F040FD42
:1013C000C4E07A68654B9A4208D10420012103F0F9
:1013D00037FD0420002103F033FDB7E07A68604B4D
:1013E0009A4208D10820012103F02AFD082000219B
:1013F00003F026FDAAE07A685A4B9A4208D11020E1
:10140000012103F01DFD1020002103F019FD9DE0D6
:101410007A68554B9A4208D12020012103F010FD33
:101420002020002103F00CFD90E07A684F4B9A4297
:101430000AD14FF40050012103F0E4FC4FF40050B6
:10144000002103F0DFFC81E07A68494B9A420AD11F
:101450004FF40020012103F0D5FC4FF400200021BF
:1014600003F0D0FC72E07A68424B9A420AD14FF402
:101470008010012103F0C6FC4FF48010002103F01E
:10148000C1FC63E07A683C4B9A420AD14FF40010E9
:10149000012103F0B7FC4FF40010002103F0B2FC6F
:1014A00054E07A68354B9A4208D14020012103F07C
:1014B000C7FC4020002103F0C3FC47E07A68304BB2
:1014C0009A4208D18020012103F0BAFC802000213B
:1014D00003F0B6FC3AE07A682A4B9A420AD14FF4FC
:1014E0008070012103F0ACFC4FF48070002103F008
:1014F000A7FC2BE07A68244B9A420AD14FF4803043
:10150000012103F07FFC4FF48030002103F07AFCCE
:101510001CE07A681D4B9A420AD14FF40030012139
:1015200003F070FC4FF40030002103F06BFC0DE081
:101530007A68174B9A4209D14FF48020012103F0B9
:1015400061FC4FF48020002103F05CFC0837BD46AD
:1015500080BD00BF002C0140000400400008004096
:10156000000C004000100040001400400034014016
:10157000004C014000500140005401400018004060
:10158000001C004000200040004001400044014099
:101590000048014080B485B000AF78603960002316
:1015A000FB817B681B88FB817A682E4B9A4213D0A3
:1015B0007A682D4B9A420FD07B68B3F1804F0BD0E5
:1015C0007A682A4B9A4207D07A68294B9A4203D00C
:1015D0007A68284B9A4208D1FB8923F07003FB817B
:1015E0003B685A88FB891343FB817A68224B9A42F5
:1015F0000CD07A68214B9A4208D0FB8923F44073BF
:10160000FB813B68DA88FB891343FB817B68FA899D
:101610001A803B689A887B689A853B681A887B6841
:101620001A857A680F4B9A420FD07A680E4B9A420D
:101630000BD07A68124B9A4207D07A68114B9A42C3
:1016400003D07A68104B9A4204D13B681B7A1A4641
:101650007B681A867B6801229A821437BD465DF842
:10166000047B7047002C014000340140000400401E
:1016700000080040000C0040001000400014004032
:1016800000400140004401400048014080B485B062
:1016900000AF786039600023BB8100237B81002389
:1016A000FB817B681B8C9BB223F480539AB27B68CE
:1016B0001A847B681B8C7B817B689B88FB817B68A1
:1016C0009B8BBB81BB8923F4E043BB81BB8923F4A3
:1016D0004073BB813B681B881B029AB2BB891343D2
:1016E000BB817B8923F400537B813B681B891B03EF
:1016F0009AB27B8913437B813B685B881B039AB258
:101700007B8913437B817A68124B9A4203D07A68B3
:10171000114B9A420AD1FB8923F48043FB813B6839
:101720009B899B019AB2FB891343FB817B68FA89F1
:101730009A807B68BA899A833B68DA887B68A3F8C9
:1017400040207B687A891A841437BD465DF8047B93
:10175000704700BF002C01400034014080B483B0CA
:1017600000AF78607B684FF6FF729A807B6800223A
:101770001A807B680022DA807B6800225A807B68AE
:1017800000221A720C37BD465DF8047B704700BF1B
:1017900080B483B000AF78607B6800221A807B68D9
:1017A00000225A807B6800229A807B680022DA80BF
:1017B0007B6800221A817B6800225A817B680022A4
:1017C0009A817B680022DA810C37BD465DF8047B84
:1017D000704700BF80B483B000AF78600B46FB70E9
:1017E000FB78002B08D07B681B889BB243F0010379
:1017F0009AB27B681A8007E07B681B889BB223F053
:1018000001039AB27B681A800C37BD465DF8047BF1
:10181000704700BF80B483B000AF78600B46FB70A8
:10182000FB78002B0CD07B68B3F844309BB26FEA96
:1018300043436FEA53439AB27B68A3F8442009E01C
:101840007B68B3F844309BB2C3F30E039AB27B6853
:10185000A3F844200C37BD465DF8047B704700BFF9
:1018600080B485B000AF78600B467B800023FB73AB
:101870000023BB8100237B817B681B8A9AB27B8813
:101880001340BB817B689B899AB27B8813407B8124
:10189000BB89002B05D07B89002B02D00123FB7371
:1018A00001E00023FB73FB7B18461437BD465DF84F
:1018B000047B704780B483B000AF78600B467B80B8
:1018C0007B88DB439AB27B681A820C37BD465DF891
:1018D000047B704780B586B000AF78600123FB6061
:1018E00000233B617B687B6120E07B691B78202BB8
:1018F00005D17B6900221A700123FB6013E0FB68AD
:10190000002B10D03B69042B0ADC1F4B3A69796924
:1019100043F822103B6901333B610023FB6002E086
:101920006FF001032BE07B6901337B617B691B78DE
:10193000002BDAD13B69002B1CD0144BBB6014E0A8
:10194000114B1A68BB681B681046194604F068FF03
:101950000346002B06D1BB685B6838690A49984783
:1019600003460CE0BB680C33BB60BB681B68002BF4
:10197000E6D102E06FF0020301E04FF0FF331846BA
:101980001837BD4680BD00BFEC05002000000020D8
:1019900080B584B000AF786039600F4802F030F84D
:1019A0000E4802F02DF80E4BFB600BE0FB681A6846
:1019B000FB689B680B4811461A4602F021F8FB6849
:1019C0000C33FB60FB681B68002BEFD1002318462B
:1019D0001037BD4680BD00BFEC6D0008046E0008E6
:1019E000000000201C6E000880B584B000AF0346E4
:1019F0003960FB713B68BB600023FB7311E0BB687F
:101A00005B78FA799A4206D1FB7B0A48194601F0C5
:101A1000F7FFFB7B09E0BB680433BB60FB7B013352
:101A2000FB73FB7B042BEAD9FF2318461037BD4616
:101A300080BD00BF306F000880B584B000AF786013
:101A4000334B1B78012B2ED17B689B78002B26D043
:101A5000304801F0D5FF7B68DA782F4BDB789A426B
:101A600003D02D4B00221A744EE00023FB730AE0D2
:101A7000FB7B294A13441B792848194601F0C0FF13
:101A8000FB7B0133FB737B68DB78FA7B9A42EFD3F5
:101A9000234801F0DFFF204B01221A7434E01E4B73
:101AA00000221A7430E07B689B78002B03D01A4B1D
:101AB00000221A7428E07B68DA78174BDB789A42A8
:101AC00006D0154B00221A74164801F0C3FF1BE024
:101AD000114B01221A74144801F092FF0023FB738A
:101AE0000AE0FB7B0C4A13441B790C48194601F0B1
:101AF00087FFFB7B0133FB737B68DB78FA7B9A42C1
:101B0000EFD3074801F0A6FF1037BD4680BD00BFE8
:101B1000F20F0020786F0008E00F0020A06F00088F
:101B2000086F0008A86F0008C46F000880B582B075
:101B300000AF5D4840F6460103F09EFB0346002BD4
:101B40000ED0594B9B889BB2FB71584B01229A7364
:101B5000564B00221A73544840F2255103F0E4FB1F
:101B6000514840F2255103F087FB0346002B00F05B
:101B700098804D4B9B889BB2FB71FB794C48194672
:101B800001F03EFF494B9B7B002B10D0474B0022BE
:101B90009A73FB79552B03D1444B01221A737BE0D6
:101BA000444801F057FF414B00221A7374E03F4B49
:101BB0001B7B002B29D03D4B00221A733B4B01228B
:101BC0005A73FB7918463C49FFF70EFF03461A4645
:101BD000364B1A70354B0022DA70344BFA795A7052
:101BE000364B1B78012B57D0304B1B78324A9B0069
:101BF00013449B78DBB2002B03D02C4B01225A7488
:101C00004AE02A4B00225A7446E0284B5B7B002BAB
:101C100042D0264BDA78254B1B7827499B000B4492
:101C2000DB78DBB29A4228D2204BDB781F4A134480
:101C3000FA791A711D4BDB780133DAB21B4BDA707B
:101C40001A4BDA78194B1B781B499B000B44DB7845
:101C5000DBB29A4220D1154B1B789A00164B1344E5
:101C60001846FFF7E9FE114B00221A730F4B0022B2
:101C70005A730E4B00229A730EE0114801F0EAFEEF
:101C80000A4B0022DA70094B00221A73074B00221C
:101C90005A73064B00229A73034840F2255103F011
:101CA00043FB0837BD4680BD00440040E00F0020E4
:101CB000A06F0008EC6F000860000020F20F002009
:101CC0000870000890B583B000AF0023FB8065E189
:101CD000854B1B889BB2DBB203F00F03DAB2834B58
:101CE0001A70824B1B78002B40F00A81804B1B68D6
:101CF0009AB2804B1A807F4B1B889BB203F0300353
:101D00009AB27D4B1A807B4B1B889BB203F44053E5
:101D10009AB2784B1A80764B1B689BB24BF6BF7415
:101D20001C4084F4005484F02004714AA1B2734B27
:101D30000B439BB213606C4B1B889BB203F01003E8
:101D4000002B3FD16A4A6A4B1B689BB2194648F682
:101D50000F730B401360FFF719FA654B1B689BB2BA
:101D60004BF6BF741C40634B1B889BB203F480533B
:101D70009BB2002B01D084F480545E4B1B889BB235
:101D800003F400539BB2002B01D084F400545A4B4F
:101D90001B889BB203F010039BB2002B01D084F090
:101DA0001004554B1B889BB203F020039BB2002B01
:101DB00001D084F020044E4AA1B2504B0B439BB299
:101DC0001360F6E04A4B1B689BB2FB80FB889BB21A
:101DD00003F40063002B3FD0454A454B1B689BB280
:101DE000194640F68F730B401360FFF763F9404BC1
:101DF0001B689BB24BF6BF741C403E4B1B889BB2CA
:101E000003F480539BB2002B01D084F48054394BEF
:101E10001B889BB203F400539BB2002B01D084F4C7
:101E20000054354B1B889BB203F010039BB2002B70
:101E300001D084F01004304B1B889BB203F02003C8
:101E40009BB2002B01D084F02004294AA1B22B4B75
:101E50000B439BB21360ACE0FB889BB29BB21BB2FE
:101E6000002B80F29B80224A214B1B689BB21946B3
:101E700040F68F730B401360FFF7D0F91C4B1B68C3
:101E80009BB24BF6BF741C401A4B1B889BB203F4E9
:101E900080539BB2002B01D084F48054154B1B88D7
:101EA0009BB203F400539BB2002B01D084F4005486
:101EB000114B1B889BB203F010039BB2002B01D087
:101EC00084F010040C4B1B889BB203F020039BB2E0
:101ED000002B01D084F02004054AA1B2074B0B432C
:101EE0009BB2136065E000BF781D00208C1C0020B1
:101EF000005C0040F40F0020F60F00208080FFFF00
:101F00002D4B1B789B0003F1804303F5B8431B68FE
:101F10009BB2FB80FB889BB29BB21BB2002B1BDAEF
:101F2000254B1B789B0003F1804303F5B843224AFD
:101F30001278920002F1804202F5B842126892B221
:101F4000114640F68F720A401A601B4B1B785A1ECE
:101F50001A4B53F822309847FB889BB203F080035A
:101F6000002B1BD0144B1B789B0003F1804303F51F
:101F7000B843114A1278920002F1804202F5B84249
:101F8000126892B2114648F60F720A401A600A4B64
:101F90001B785A1E0A4B53F822309847094B1B688E
:101FA0009BB2094A194611809BB21BB2002BFFF667
:101FB0008FAE0C37BD4690BD8C1C00206C010020FC
:101FC00050010020445C0040781D002080B500AF27
:101FD000154B154A126842F001021A60124A124B60
:101FE0005968124B0B4053600F4A0F4B1B6823F08C
:101FF000847323F4803313600B4B0B4A126822F472
:1020000080221A60084B084A526822F4FE025A6085
:10201000054B4FF41F029A6000F00CF8044B4FF090
:1020200000629A6080BD00BF001002400000FFF80F
:1020300000ED00E080B500AF00F002F880BD00BF09
:1020400080B483B000AF00237B6000233B603A4B39
:10205000394A126842F480321A60374B1B6803F425
:1020600000333B607B6801337B603B68002B03D10E
:102070007B68B3F5A06FF0D12F4B1B6803F40033DE
:10208000002B02D001233B6001E000233B603B6852
:10209000012B4BD1294B294A126842F010021A60D9
:1020A000264B264A126822F003021A60234B234A69
:1020B000126842F002021A601F4B1F4A52685A60AF
:1020C0001D4B1D4A52685A601B4B1B4A526842F412
:1020D00080625A60184B184A526822F47C125A6087
:1020E000154B154A526842F4E8125A60124B124AD4
:1020F000126842F080721A6000BF0F4B1B6803F039
:102100000073002BF9D00C4B0B4A526822F00302EB
:102110005A60094B084A526842F002025A6000BFF6
:10212000054B5B6803F00C03082BF9D10C37BD4657
:102130005DF8047B704700BF0010024000200240A1
:1021400080B500AF0A2000210022082304F006F920
:1021500004484FF4805102F011F8034801F07AFC72
:1021600080BD00BF000C0140E870000880B582B05F
:1021700000AF13460246FA710A46BA717B710E48E7
:102180004FF4805102F008F8BB7903F01F03DAB274
:10219000FB791343DBB2DBB2184604F0CFF97B794D
:1021A000184604F0CBF904484FF4805101F0E6FFE3
:1021B0000837BD4680BD00BF000C014080B582B02D
:1021C00000AF0346FB71FB7903F060020D4B1B78F7
:1021D0009A4213D0A0201F210322FFF7C7FFFB79EB
:1021E00003F06003DAB2074B1A70064B1B785B09E9
:1021F000DBB280201F211A46FFF7B8FF0837BD4623
:1022000080BD00BF0406002080B582B000AF02464A
:102210000B46FA71BB71FB791846FFF7CFFFFA79CD
:10222000BB79402011461A46FFF7A0FF0837BD468C
:1022300080BD00BF80B582B000AF02460B46FA7188
:10224000BB80BB88DBB2FA7910461946FFF7DCFF8A
:10225000FB790133DAB2BB881B0A9BB2DBB21046B2
:102260001946FFF7D1FF0837BD4680BD80B582B063
:1022700000AF02460B46FA71BB80FB79D4201946A9
:10228000FFF7C2FFBB88DBB2D6201946FFF7BCFFC1
:10229000BB881B0A9BB2DBB2D7201946FFF7B4FFFD
:1022A00000BFEA2000F038F8034603F00103002BDA
:1022B000F7D10837BD4680BD80B584B000AF024677
:1022C0000B46FA71BB7113484FF4805101F064FF63
:1022D000BB7903F01F03DAB2FB791343DBB2DBB245
:1022E000184604F02BF904F051F90346FB73BB794F
:1022F0005BB2002B03DA04F049F90346FB7305488F
:102300004FF4805101F03AFFFB7B18461037BD4671
:1023100080BD00BF000C014080B582B000AF034615
:10232000FB71FB791846FFF749FFFB79002019463E
:10233000FFF7C2FF034618460837BD4680BD00BF01
:1023400090B583B000AF0346FB71FB791846FFF7E9
:10235000E3FF03461C46FB790133DBB21846FFF767
:10236000DBFF03461B029BB223449BB218460C378B
:10237000BD4690BD80B582B000AF0346FB71FB79CE
:10238000D4201946FFF740FFD2200121FFF73CFF80
:10239000012004F071F900BFEA20FFF7BDFF0346FA
:1023A00003F00103002BF7D1D2200021FFF72CFF0F
:1023B000D920FFF7B1FF034618460837BD4680BD58
:1023C00080B582B000AF0346FB71FB79D42019467B
:1023D000FFF71AFFD2200121FFF716FF012004F0BA
:1023E0004BF900BFEA20FFF797FF034603F0010314
:1023F000002BF7D1D2200021FFF706FFD820FFF7EE
:102400009FFF034618460837BD4680BD80B582B0A1
:1024100000AF03463960FB8011484FF4805101F052
:10242000BBFE3A2004F08AF80BE0FB88013BFB80FE
:1024300004F0ACF803461A463B681A703B68013357
:102440003B60FB88002BF0D13B6800221A700448E7
:102450004FF4805101F092FE0837BD4680BD00BFA9
:10246000000C014080B582B000AF03463960FB80AC
:102470000F484FF4805101F08FFE7A2004F05EF88F
:102480000AE0FB88013BFB803B681B78184604F0A0
:1024900055F83B6801333B60FB88002BF1D10448C1
:1024A0004FF4805101F06AFE0837BD4680BD00BF81
:1024B000000C014080B582B000AF0346FB71FB7990
:1024C00003F00703DBB275201946FFF79DFE0348B2
:1024D00001F0C0FA0837BD4680BD00BF007100089A
:1024E00080B582B000AF00237B6000237B6012E0E8
:1024F0001120FFF73FFF034603F00403002B04D035
:102500000A4801F0A7FA01230CE00A2004F0B4F80D
:102510007B6801337B607B68632BE9DD044801F055
:1025200099FA002318460837BD4680BD1C71000883
:102530003071000880B500AF274801F08BFA002009
:10254000FFF73EFF03462548194601F059FA0120DE
:10255000FFF736FF03462248194601F051FA0220E0
:10256000FFF72EFF03461F48194601F049FA0320E2
:10257000FFF726FF03461C48194601F041FA1020D8
:10258000FFF71EFF03461948194601F039FA1120DA
:10259000FFF716FF03461648194601F031FA1220DC
:1025A000FFF70EFF03461348194601F029FA1320DE
:1025B000FFF706FF03461048194601F021FA1420E0
:1025C000FFF7FEFE03460D48194601F019FA0C48C4
:1025D00001F040FA00BF80BD4C7100086071000836
:1025E00088710008B0710008F071000818720008C6
:1025F000407200086872000890720008B872000803
:10260000E072000880B582B000AF78600B467B8036
:1026100011E01C20FFF780FE034603F00203002BAD
:1026200009D080201F218022FFF7A0FDA0201F21BC
:102630008022FFF79BFD00201F21FFF73DFE034690
:1026400003F00803002BE4D1022041F6FF11FFF74D
:10265000F1FD7B8803F5CF531F339BB2062019464B
:10266000FFF7E8FD7A2000210022FFF77FFD7B883D
:1026700018467968FFF7F6FE80201F210822FFF731
:1026800075FD0837BD4680BD80B584B000AF786069
:1026900039600023FB813920FFF73EFE0346002B03
:1026A0004AD0284B1B689BB200201946FFF7C2FD99
:1026B00007F1080306201946FFF7A8FE3B891A46D2
:1026C000204B1A607B89043BFB81FA891E4B1B68F7
:1026D000013B9A4204D91C4B1B689BB2013BFB8116
:1026E000BB8903F08003002B02D10023FB8104E0AF
:1026F000FB8918463968FFF789FEFB89134A0021D8
:10270000D154104B1B685A1E41F6FE139A4205DD48
:102710000C2041F6FE11FFF78DFD08E0094B1B6808
:102720009BB2013B9BB20C201946FFF783FD802032
:102730001E214022FFF71AFDFB8918461037BD46BF
:1027400080BD00BF08060020F80F00200C06002006
:1027500080B500AF3820B121FFF756FD80BD00BF26
:1027600080B584B000AF03463960FB80FA88594BCE
:102770001A60FFF7E5FC58484FF4805101F0FEFC69
:102780000120FFF797FEFF200021FF22FFF7EEFC5C
:10279000012003F071FF514B00221A600820002134
:1027A000FFF748FD0C200021FFF744FD0A2041F609
:1027B000FE11FFF73FFD042041F6FF11FFF73AFD40
:1027C000062041F6FF71FFF735FDFFF7C1FF382006
:1027D000B021FFF719FD282043F23F01FFF72AFD42
:1027E00030204FF2F971FFF725FDC0200D21FFF7D2
:1027F0000BFDC1200021FFF707FD8020C2213322FD
:10280000FFF7B4FCC62040F61241FFF713FDC420C9
:102810001221FFF7F9FCCA2040F2DC51FFF70AFD54
:102820003B681B78E4201946FFF7EEFC3B68013358
:102830001B78E5201946FFF7E7FC3B6802331B785D
:10284000E2201946FFF7E0FC3B6803331B78E320E6
:102850001946FFF7D9FC3B6804331B78E020194682
:10286000FFF7D2FC3B6805331B78E1201946FFF7E0
:10287000CBFC00204FF48071FFF7F8FC10204FF4E0
:102880008071FFF7F3FC142043F2D241FFF7EEFC16
:102890001F20FFF793FC80201B21C022FFF766FC5E
:1028A00080201F210422FFF761FC7220FFF734FD16
:1028B0000346FB73FB7B0A48194601F0A1F8FB7B3A
:1028C000052B02D9FB7B0133FB73FB7B18461037CA
:1028D000BD4680BDF80F0020000C01400806002016
:1028E0006073000880B500AFFFF7FAFD0346002BC8
:1028F00003D1044801F0AEF8F6E7034801F0AAF866
:1029000000BF80BD887300089C73000880B584B048
:1029100000AF2E4801F09EF841233B7052237B709C
:102920004123BB704D23FB7049233B7149237B71CD
:102930003B4640F2EA501946FFF712FFFFF7FAFD57
:10294000FFF7D0FF0023FB7306E0FB7B204AFF214B
:10295000D154FB7B0133FB73FB7B052BF5D90023A3
:10296000FB730CE0FB7B0633FA7B07F110010A4492
:1029700012F8101C164AD154FB7B0133FB73FB7B0E
:10298000052BEFD9124B08221A73114B00225A73F0
:102990000F4B45229A730023BB600E48B96801F0C3
:1029A0002FF80B484021FFF72DFEBB680133BB60B9
:1029B000642003F061FE00BF40F2EA500449FFF7D3
:1029C00063FE0346002BF7D1E7E700BFA4730008BE
:1029D0000C060020EC73000880B582B000AF094BF4
:1029E0007B607B689B7A002B03D0074B05221A6023
:1029F00002E0054B01221A60FFF7E8FA0837BD46EE
:102A000080BD00BF901C00200C0C002080B483B05F
:102A100000AF0346FB710C37BD465DF8047B704781
:102A200080B500AF0E4B4FF4E1321A600C4B002220
:102A30009A800B4B0022DA80094B00221A81084B46
:102A400000229A81064B0C225A810020044900F092
:102A5000D1F9044840F22551012202F087FB80BDE4
:102A6000001000200038014080B500AF304B1B79CA
:102A7000012B07D0022B0AD0002B0DD12D4B0022A9
:102A8000DA800DE02B4B4FF44052DA8008E0294BFE
:102A90004FF40052DA8003E0FFF7C2FF002344E066
:102AA000234B5B79012B07D0022B0AD0002B0DD1D1
:102AB000204B00221A810DE01E4B4FF480621A81D8
:102AC00008E01C4B4FF4C0621A8103E0FFF7A8FF37
:102AD00000232AE0164B9B79072B02D0082B04D049
:102AE00010E0144B00229A8010E0124B1B89002B3F
:102AF00003D1104B00229A8008E00E4B4FF4805215
:102B00009A8003E0FFF78CFF00230EE0084B1A6861
:102B1000084B1A60074B00229A81064B0C225A81FF
:102B20000020044900F066F90123184680BD00BF6B
:102B3000A80000200010002080B584B000AF7860AD
:102B40000B46FB700023FB6012E07A68FB681344BD
:102B50001B780B48194602F051FB00BF0848802142
:102B600002F06EFB0346002BF8D0FB680133FB60DC
:102B7000FA78FB689A42E8D81037BD4680BD00BF9E
:102B80000038014080B582B000AF334B1B78012B79
:102B90005FD0324B1B68B3F5006F02D12F4B002280
:102BA0001A602E4B1A682E4B1B689A4203D12A4B8F
:102BB00000221A704DE0294B1A68294B1B689A4273
:102BC00006D9264B1B68C3F50062264B1A6006E047
:102BD000234B1A68214B1B68D21A224B1A60214BD7
:102BE0001B68402B11D91D4B1B68FB804023BB8009
:102BF0001A4B1B6803F14002184B1A60194B1B68F3
:102C0000A3F14002174B1A600FE0144B1B68FB80C6
:102C1000144B1B68BB80114B1A68124B1B681A447B
:102C20000E4B1A600F4B00221A600B4B01221A70D8
:102C3000FA880D4B1A44BB881046C0211A4602F090
:102C400009FFBB880120194600F036FB012000F087
:102C5000E7F90837BD4680BD040C0020FC0B0020BE
:102C6000F80B0020000C00201010002098B500AFD9
:102C7000154B9B79072B0CD1144B1C68144802F0A0
:102C8000CFFA0346DBB203F07F03DAB2114B1A55D9
:102C90000CE00D4B9B79082B08D10C4B1C680C48A1
:102CA00002F0BEFA0346DAB20A4B1A55074B1B680C
:102CB0005A1C064B1A60054B1B68B3F5006F02D116
:102CC000024B00221A6098BDA8000020F80B0020DB
:102CD000003801401010002080B584B000AF0E4BCA
:102CE0001B68FB600D4B1B68BB600D4B1B687B605A
:102CF000FA687B681344FB60FB68002B09D0F86816
:102D00000849082200F012F8B8680749042200F0C8
:102D10000DF81037BD4680BDE8F7FF1FECF7FF1F29
:102D2000F0F7FF1F8E0000209E00002080B487B0C7
:102D300000AFF860B9601346FB710023FB750023F8
:102D4000FB7525E0FB681B0F092B0AD8FB7D5B0098
:102D5000BA681344FA68120FD2B23032D2B21A7083
:102D600009E0FB7D5B00BA681344FA68120FD2B227
:102D70003732D2B21A70FB681B01FB60FB7D5B002F
:102D80000133BA68134400221A70FB7D0133FB75CE
:102D9000FA7DFB799A42D5D31C37BD465DF8047B9A
:102DA000704700BF80B500AF02F0BCFE80BD00BF21
:102DB00080B500AF4FF4802002F094F880BD00BFD2
:102DC00080B500AF0A4840F2255102F055FA03469B
:102DD000002B01D0FFF74AFF0548082102F030FA26
:102DE0000346002B02D0024802F01AFA80BD00BF51
:102DF0000038014080B584B000AF03463960FB71F4
:102E0000FA792E4B53F82220F9792D4B53F82130C3
:102E1000134343F001031846012101F0B7FFFB798A
:102E2000002B08D1FA79274B53F82230184601219C
:102E300001F0ACFF0BE00820012101F0CDF9FA7997
:102E4000204B53F822301846012101F0BDFF182312
:102E5000FB73FA791C4B33F81230BB810323BB732D
:102E6000FA791A4B53F8222007F10C031046194641
:102E700001F0AEF80423FB73FA79154B33F81230E6
:102E8000BB81FA79134B53F8222007F10C0310464B
:102E9000194601F09DF8FA790F4B53F82230184685
:102EA000396802F089F8FA790B4B53F8223018464A
:102EB000012102F03BF91037BD4680BD00740008C7
:102EC00008740008F8730008107400087C000020E3
:102ED00014740008840000207400002080B483B0C3
:102EE00000AF0346FB80054AF9884FF6F8730B40A4
:102EF00013600C37BD465DF8047B7047505C0040A2
:102F000080B483B000AF02460B46FA71BB80FB79F8
:102F10009B0003F1804303F5B843FA79920002F174
:102F2000804202F5B842126892B222F4EC4222F0DA
:102F3000700291B2BA880A4392B292B21A600C3708
:102F4000BD465DF8047B704790B482B000AF024686
:102F50000B46FA71BB80FB799B0003F1804303F5BC
:102F6000B8431B689BB223F4E04323F040039CB2B8
:102F7000BB8803F010039BB2002B02D084F0100337
:102F80009CB2BB8803F020039BB2002B02D084F0DC
:102F900020039CB2FB799B0003F1804303F5B84307
:102FA000034A224392B21A600837BD4690BC70476C
:102FB0008080FFFF90B482B000AF02460B46FA71EA
:102FC000BB80FB799B0003F1804303F5B8431B688A
:102FD0009BB223F4804323F070039CB2BB8803F4BC
:102FE00080539BB2002B02D084F480539CB2BB88E8
:102FF00003F400539BB2002B02D084F400539CB224
:10300000FB799B0003F1804303F5B843034A224355
:1030100092B21A600837BD4690BC70478080FFFFAF
:1030200090B482B000AF0346FB71FB799B0003F1C3
:10303000804303F5B8431B689BB223F4E04323F0BD
:1030400040039CB284F010039CB284F020039CB235
:10305000FB799B0003F1804303F5B843034A224305
:1030600092B21A600837BD4690BC70478080FFFF5F
:1030700090B482B000AF0346FB71FB799B0003F173
:10308000804303F5B8431B689BB223F4804323F0CD
:1030900070039CB284F480539CB284F400539CB2BD
:1030A000FB799B0003F1804303F5B843034A2243B5
:1030B00092B21A600837BD4690BC70478080FFFF0F
:1030C00080B483B000AF0346FB71FB799B0003F132
:1030D000804202F5B842FB799B0003F1804303F57F
:1030E000B8431B689BB223F4F8731B051B0D9BB2FE
:1030F00043F07F4343F47F0343F4004343F08003F2
:103100009BB29BB213600C37BD465DF8047B7047E1
:1031100080B483B000AF0346FB71FB799B0003F1E1
:10312000804303F5B8431B689BB203F48043002B34
:1031300016D0FB799B0003F1804303F5B843FA797D
:10314000920002F1804202F5B842126892B2114632
:1031500040F60F720A4042F4404242F080021A6088
:103160000C37BD465DF8047B704700BF80B483B068
:1031700000AF0346FB71FB799B0003F1804303F52D
:10318000B8431B689BB203F04003002B16D0FB79B9
:103190009B0003F1804303F5B843FA79920002F1F2
:1031A000804202F5B842126892B2114640F60F72A0
:1031B0000A4042F4004242F0C0021A600C37BD4699
:1031C0005DF8047B704700BF80B483B000AF024657
:1031D0000B46FA71BB800B4B1B689BB21A46FB79FE
:1031E000DB00134403F1005303F540535B00BA883E
:1031F000520892B252001A600C37BD465DF8047B4B
:10320000704700BF505C004080B483B000AF0246FE
:103210000B46FA71BB800A4B1B689BB21A46FB79BE
:10322000DB001A44074B13445B00BA88520892B281
:1032300052001A600C37BD465DF8047B704700BF32
:10324000505C00400430002080B483B000AF0346DF
:10325000FB710A4B1B689BB21A46FB79DB001344D7
:1032600003F1005303F540535B001B689BB2184603
:103270000C37BD465DF8047B704700BF505C0040D2
:1032800080B483B000AF0346FB71094B1B689BB24F
:103290001A46FB79DB001A44064B13445B001B689B
:1032A0009BB218460C37BD465DF8047B704700BFE3
:1032B000505C00400430002080B483B000AF024670
:1032C0000B46FA71BB80084B1B689BB21A46FB7910
:1032D000DB001A44054B13445B00BA881A600C37B4
:1032E000BD465DF8047B7047505C00400230002012
:1032F00080B485B000AF02460B46FA71BB801B4B11
:103300001B689BB21A46FB79DB001A44184B134426
:103310005B00BB60BB883E2B12D9BB885B09FB817D
:10332000BB8803F01F03002B02D1FB89013BFB810B
:10333000FB899B0243F400431A46BB681A600FE006
:10334000BB885B08FB81BB8803F00103002B02D024
:10335000FB890133FB81FB899B021A46BB681A601B
:103360001437BD465DF8047B704700BF505C0040D9
:103370000630002080B483B000AF0346FB710A4BD7
:103380001B689BB21A46FB79DB001A44074B1344B7
:103390005B001B689BB2C3F309039BB218460C3752
:1033A000BD465DF8047B7047505C0040063000204D
:1033B00080B485B000AF0346FB80FB88FB73FB88BD
:1033C0001B0A9BB29AB2FB7B1B029BB213439BB2BC
:1033D000BB81BB8918461437BD465DF8047B704736
:1033E00080B584B000AF0346FB71FB79FB73FB7BB8
:1033F0009BB20748194601F001FF00BF0448402175
:1034000001F01EFF0346002BF8D01037BD4680BDEB
:103410000038014080B483B000AF78600B46FB7089
:103420007B68FA781A70012318460C37BD465DF8A0
:10343000047B704780B485B000AF786039600023AA
:10344000FB600AE07B685A1C7A603A68511C39605C
:1034500012781A70FB680133FB603B681B78002B05
:10346000F0D1FB6818461437BD465DF8047B704701
:1034700080B586B000AFF8607A603B600B46FB72A7
:1034800000237B617B68013B7B603B68092B10D983
:103490003A681E4BA3FB0213DB08FA7AF868114660
:1034A0007A68FFF7E5FF78617B69FA681344FB608F
:1034B00011E00DE0FB7AF8681946FFF7ABFFFB68F7
:1034C0000133FB607B6901337B617B68013B7B607F
:1034D0007B68002BEEDC39680C4BA3FB0123DA0878
:1034E00013469B0013445B00CA1AD3B23033DBB2DD
:1034F000F8681946FFF78EFF03467A6913447B612B
:103500007B6918461837BD4680BD00BFCDCCCCCCFA
:1035100080B586B000AFF8607A603B600B46FB7206
:1035200000237B613B68002B03DA3B685B423B6115
:1035300001E03B683B617B68013B7B603B69092B99
:1035400021D93B68002B0DDA3A692F4BA3FB0213FC
:10355000DB085B42FA7AF86811467A68FFF7D8FF11
:1035600078610BE03A69284BA3FB0213DB08FA7A77
:10357000F86811467A68FFF7CBFF78617B69FA68D3
:103580001344FB6026E03B68002B03DA7B68013BB9
:103590007B600EE00DE0FB7AF8681946FFF73AFF12
:1035A000FB680133FB607B6901337B617B68013B16
:1035B0007B607B68002BEEDC3B68002B0ADAF86846
:1035C0002D21FFF727FF03467A6913447B61FB68CF
:1035D0000133FB6039690C4BA3FB0123DA08134666
:1035E0009B0013445B00CA1AD3B23033DBB2F868D5
:1035F0001946FFF70FFF03467A6913447B617B6925
:1036000018461837BD4680BDCDCCCCCC80B588B02F
:1036100002AFF8607A600A46FA72BB7200237B61DF
:103620007B68013B7B603B6A1B09002B12D03B6A25
:103630001909FA7ABB7A0091F86811467A68FFF79F
:10364000E5FF03467A6913447B617B69FA6813449A
:10365000FB6011E00DE0FB7AF8681946FFF7DAFE2F
:10366000FB680133FB607B6901337B617B68013B55
:103670007B607B68002BEEDC3B6A03F00F03092BB9
:103680000BD83B6ADBB203F00F03DBB23033DBB2A3
:10369000F8681946FFF7BEFE19E0BB7A002B0BD085
:1036A0003B6ADBB203F00F03DBB23733DBB2F868FF
:1036B0001946FFF7AFFE0AE03B6ADBB203F00F03E7
:1036C000DBB25733DBB2F8681946FFF7A3FE7B691C
:1036D00001337B617B6918461837BD4680BD00BF4A
:1036E00080B58AB002AFF860B9607A603B600023B1
:1036F000BB6100237B61FB68002B03D0FB680022C9
:103700001A70F8E0F7E07B681B78252B0BD0FB687C
:103710005A1CFA607A68511C796012781A707B69B9
:1037200001337B61E7E07B6801331B78252B0BD1EC
:10373000FB685A1CFA6025221A707B6802337B6092
:103740007B6901337B61D6E02023FB770023BB77C5
:103750007B6801337B607B681B78302B05D130237D
:10376000FB777B6801337B600FE00EE0BB7F1A467E
:10377000920013445B00DAB27B681B781344DBB21F
:10378000303BBB777B6801337B607B681B782F2BDA
:1037900003D97B681B78392BE8D9BA7F7B6913443E
:1037A0001A46BB689A4205D9BB68DAB27B69DBB2BC
:1037B000D31ABB777B681B78583B202B00F28D8097
:1037C00001A252F823F000BF95380008DB3800084A
:1037D000DB380008DB380008DB380008DB3800087D
:1037E000DB380008DB380008DB380008DB3800086D
:1037F000DB380008C53800084D380008DB38000801
:10380000DB380008DB380008DB3800084D380008DA
:10381000DB380008DB380008DB380008DB3800083C
:10382000DB380008DB380008DB380008DB3800082C
:10383000DB380008B1380008DB38000863380008BE
:10384000DB380008DB38000879380008BA7F3B68AD
:10385000191D39601B68F97FF868FFF759FEB861D8
:103860003EE0BA7F3B68191D39601B68F97FF86834
:10387000FFF7FEFDB86133E0BA7F3B68191D396080
:103880001968FB7F0091F86819460023FFF7BEFE18
:10389000B86125E0BA7F3B68191D39601968FB7F64
:1038A0000091F86819460123FFF7B0FEB86117E0F0
:1038B0003B681A1D3A601B68F8681946FFF7BAFDA5
:1038C000B8610DE03B681A1D3A601B68DBB2F8680E
:1038D0001946FFF79FFDB86102E04FF0FF3325E086
:1038E0007B6801337B60BB69FA681344FB607A69CB
:1038F000BB6913447B617B681B78002B04D07A6919
:10390000BB689A42FFF4FFAE7A69BB689A4203D261
:10391000FB6800221A7008E0FB68013BFB60FB6853
:1039200000221A707B69013B7B617B691846203756
:10393000BD4680BD80B584B000AFF860B9607A60E4
:10394000F8684FF48071BA687B68FFF7C9FE0346D8
:1039500018461037BD4680BDB0B5CEB000AF07F1F8
:103960000C03186007F1080319603B1D1A6007F18A
:103970001402174B14461D460FCD0FC40FCD0FC4B4
:103980002B68236007F1380107F108023B1D084648
:1039900011681A68FFF7CEFF0346FF2B09DD0D4BB8
:1039A0001B68DB6807F114021046194600F084F822
:1039B000FEE707F1380207F10C031046196800F022
:1039C0007BF80346184607F59C77BD46B0BD00BF9F
:1039D000D8740008B805002080B582B000AF7860C8
:1039E0003960064B1B689B68184679683A68FFF790
:1039F000B3FF034618460837BD4680BDB805002012
:103A00000FB480B582B000AF07F114033B60386992
:103A10003968FFF7E1FF78607B6818460837BD46D4
:103A2000BDE8804004B070470EB480B585B000AFEB
:103A3000786007F12003BB607868F969BA68FFF71E
:103A400079FFF860FB6818461437BD46BDE8804032
:103A500003B0704780B582B000AF7860054B1B683B
:103A60009B687868194600F027F80346184608371F
:103A7000BD4680BDB805002080B582B000AF78603B
:103A800039600C4B1B689A683B689A4205D0094B19
:103A90001B68DA683B689A4206D17B68DBB218463D
:103AA000FFF79EFC7B6801E04FF0FF3318460837B4
:103AB000BD4680BDB805002080B584B000AF7860F9
:103AC00039600023FB6012E07B681B781846396878
:103AD000FFF7D2FF0346B3F1FF3F02D14FF0FF33B0
:103AE0000AE0FB680133FB607B6801337B607B6825
:103AF0001B78002BE8D1FB6818461037BD4680BD07
:103B000080B582B000AF0023FB710D48202101F089
:103B100097FB0346002B0BD0094801F081FB0346BD
:103B2000FB71FB791846FFF75BFCFB799BB201E068
:103B30004FF6FF731BB218460837BD4680BD00BF65
:103B40000038014080B582B000AFFFF7D9FF0346CF
:103B5000FB80B7F90630B3F1FF3F01D100BF28E089
:103B6000B7F906300A2B15D0B7F906300D2B11D056
:103B7000124B93F80031FA88D1B2104AD1540F4B4E
:103B800093F800310133DAB20C4B83F800214FF087
:103B9000FF330EE0094B93F80031084A0021D1545D
:103BA000064B93F800317B71044B002283F800210F
:103BB0007B7918460837BD4680BD00BF1818002025
:103BC00080B485B000AFF8600B467A60FB72FB7A78
:103BD000FA681B331B0113441B68DBB203F00403B8
:103BE000DAB27B681A727B681B7A002B09D1FB7AE8
:103BF000FA681B331B0113441B685A0D7B681A605B
:103C000008E0FB7AFA681B331B0113441B68DA08CF
:103C10007B685A60FB7AFA681B331B0113441B68EC
:103C2000DBB203F00203DAB27B685A72FB7AFA68FD
:103C30001B331B0113445B68DBB203F00F03DAB2E2
:103C40007B689A72FB7AFA681B331B0113445B682A
:103C50001B0ADAB27B68DA74FB7AFA681B01134438
:103C600003F5DC731B68DAB27B68DA72FB7AFA68F8
:103C70001B01134403F5DC731B681B0ADAB27B6873
:103C80001A73FB7AFA681B01134403F5DC731B6893
:103C90001B0CDAB27B685A73FB7AFA681B01134477
:103CA00003F5DC731B681B0EDAB27B689A73FB7A30
:103CB000FA681B01134403F5DC735B68DAB27B68B6
:103CC000DA73FB7AFA681B01134403F5DC735B6853
:103CD0001B0ADAB27B681A74FB7AFA681B01134478
:103CE00003F5DC735B681B0CDAB27B685A74FB7AF1
:103CF000FA681B01134403F5DC735B681B0EDAB230
:103D00007B689A74FB7A002B06D1FB68DB6843F072
:103D10002002FB68DA6005E0FB681B6943F02002C3
:103D2000FB681A611437BD465DF8047B704700BF1D
:103D300080B584B000AF786039600023FB737B6886
:103D40005A693B681340002B00F0B2803B68402B5F
:103D500062D0402B0FD8042B3AD0042B04D8012B6F
:103D600024D0022B2BD09FE0102B43D0202B4AD005
:103D7000082B36D098E0B3F5006F00F08380B3F5E0
:103D8000006F09D8B3F5007F6AD0B3F5806F70D0AB
:103D9000B3F5807F5BD087E0B3F5803F45D0B3F5C6
:103DA000003F4BD0B3F5004F75D07DE07B689B683A
:103DB0001846434900F0F4F80346FB7377E07B684C
:103DC000DB681846032100F0EBF80346FB736EE056
:103DD0007B68DB681846082100F0E2F80346FB73B5
:103DE00065E07B68DB681846102100F0D9F80346CF
:103DF000FB735CE07B681B691846032100F0D0F878
:103E00000346FB7353E07B681B691846082100F0EA
:103E1000C7F80346FB734AE07B681B69184610210C
:103E200000F0BEF80346FB7341E07B685B68184610
:103E3000082100F0B5F80346FB7338E07B685B6847
:103E40001846102100F0ACF80346FB732FE07B68A6
:103E50009B691846012100F0A3F80346FB7326E096
:103E60007B689B691846022100F09AF80346FB73B1
:103E70001DE07B689B691846042100F091F8034619
:103E8000FB7314E07B689B691846702100F088F88A
:103E90000346FB730BE07B685B681846042100F067
:103EA0007FF80346FB7302E00023FB7300BF01E0D1
:103EB0000023FB73FB7B18461037BD4680BD00BF57
:103EC0000101010080B483B000AF786039603B68C5
:103ED000B3F5807F43D0B3F5807F0DD8082B2AD06F
:103EE000082B04D8012B1ED0042B20D051E0202B0E
:103EF00025D0402B27D04CE0B3F5006F3BD0B3F575
:103F0000006F06D8B3F5007F2DD0B3F5806F2ED0AB
:103F10003FE0B3F5803F1AD0B3F5003F1BD0B3F5B7
:103F2000004F2FD035E07B681C4A9A6031E07B68F7
:103F30000822DA602DE07B681022DA6029E07B68D5
:103F400008221A6125E07B6810221A6121E07B6853
:103F500008225A601DE07B6810225A6019E07B68D5
:103F600004225A6015E07B6804225A6011E07B68E5
:103F700004225A600DE07B6800229A617B6804226B
:103F80005A6006E07B6800229A617B6804225A60CE
:103F900000BF0C37BD465DF8047B7047010101008E
:103FA00080B485B000AF786039600023FB737A6815
:103FB0003B681340002B02D00123FB7301E0002378
:103FC000FB73FB7B18461437BD465DF8047B7047D6
:103FD00080B489B000AF786039600023FB610023B2
:103FE0003B610023BB610023FB6000237B61002356
:103FF000BB603B68DB7803F00F03FB613B68DB7859
:1040000003F01003002B04D03B689B78FA6913433C
:10401000FB613B681B88DBB2002B44D07B681B68CC
:104020007B610023BB6138E0BB69012202FA03F324
:10403000FB603B681B881A46FB6813403B613A698A
:10404000FB689A4226D1BB699B00FB60FB680F228C
:1040500002FA03F3BB60BB68DB437A6913407B6100
:10406000FB68FA6902FA03F37A6913437B613B68E0
:10407000DB78282B05D1BB6901229A407B685A6105
:1040800008E03B68DB78482B04D1BB6901229A40E9
:104090007B681A61BB690133BB61BB69072BC3D95C
:1040A0007B687A691A603B681B88FF2B46D97B685E
:1040B0005B687B610023BB613AE0BB690833012286
:1040C00002FA03F3FB603B681B881A46FB68134047
:1040D0003B613A69FB689A4227D1BB699B00FB6050
:1040E000FB680F2202FA03F3BB60BB68DB437A690B
:1040F00013407B61FB68FA6902FA03F37A691343A0
:104100007B613B68DB78282B05D1BB690833012232
:104110009A407B685A613B68DB78482B05D1BB69C4
:10412000083301229A407B681A61BB690133BB6185
:10413000BB69072BC1D97B687A695A602437BD46B1
:104140005DF8047B704700BF80B485B000AF786035
:104150000B467B800023FB737B689A687B88134047
:10416000002B02D00123FB7301E00023FB73FB7BD8
:1041700018461437BD465DF8047B704780B483B0A1
:1041800000AF78600B467B807A887B681A610C37B9
:10419000BD465DF8047B704780B483B000AF7860A3
:1041A0000B467B807A887B685A610C37BD465DF888
:1041B000047B704780B483B000AF78600B467B808F
:1041C0007B68DA687B885A407B68DA600C37BD46CA
:1041D0005DF8047B704700BF80B487B000AF7860A3
:1041E0000B46FB7000233B610023FB6000237B61D7
:1041F0000023BB607B68002B03DA2E4BDB697B61FD
:1042000002E02C4B5B687B617B6803F470231B0C22
:10421000BB607B689BB23B617B6803F44013B3F5E2
:10422000401F0AD17B6923F070637B61214B214AD7
:10423000526822F070625A6021E07B6803F48013B8
:10424000002B0ED0BB68032202FA03F3FB60FB686D
:10425000DB437A6913407B617B6943F070637B6168
:104260000DE07B685B0D1B013A6902FA03F3DB4347
:104270007A6913407B617B6943F070637B61FB78F3
:10428000002B08D07B685B0D1B013A6902FA03F32F
:104290007A6913437B617B68002B03DA054B7A69EB
:1042A000DA6102E0034B7A695A601C37BD465DF85B
:1042B000047B70470000014080B500AFFEF70CFDA5
:1042C000064B1B6800229A7200F0AAF901F092F8DE
:1042D000FEF7A6FB024B00221A6080BDB01C002036
:1042E0000C0C002080B500AF364B1B6800229A7280
:1042F000344B1B68344AD2795A72324B1B68002205
:10430000DA720020FEF7EAFD00204FF40071FEF79C
:10431000F7FD00201021FEF717FE00204021FEF7D8
:1043200073FF00208021FEF74FFF0020FEF7C8FE3C
:10433000264B93F82C3000201946FEF7D9FF0020B9
:10434000FEF796FE01200021FEF7DAFD0120C021D4
:10435000FEF73AFF01202021FEF7F6FD01200021A3
:10436000FEF728FE02204FF4C061FEF7C9FD0220CF
:104370004FF48071FEF728FF02200021FEF71AFE9D
:1043800002202021FEF7E0FD03200021FEF7B8FD0A
:1043900003204FF48871FEF737FF03204021FEF71A
:1043A000A7FF03204FF44051FEF704FE0320002135
:1043B000FEF7CAFD0020FCF793FF054B01221A60AF
:1043C00080BD00BFB01C002034740008B400002081
:1043D0000C0C002080B483B000AF074B7B607B687F
:1043E0009B7A002B02D0054B05221A600C37BD4684
:1043F0005DF8047B704700BF901C00200C0C00206F
:1044000080B400AF034B04221A60BD465DF8047B04
:10441000704700BF0C0C002080B500AF044B1B7828
:10442000202B04D1FEF720FB014B00221A7080BD27
:10443000080C002080B400AFBD465DF8047B7047D7
:1044400080B584B000AF0346FB710023FB60FB79AD
:10445000212B09D1164B1B681B7803F07F03212BFE
:1044600011D1144BFB600EE0FB79202B0BD1104BCC
:104470001B681B7803F07F03212B01D10E4BFB60DF
:104480000E4B20221A70FB68002B01D102230BE097
:10449000074B1B68FA689A61054B1B6800225A8219
:1044A000FB6800209847002318461037BD4680BDA2
:1044B000B01C0020B9450008ED450008080C00209C
:1044C00080B483B000AF0346FB710C4B1B681B78B4
:1044D00003F07F03212B09D1FB79022B01D10023AB
:1044E00005E0FB79222B01D1002300E002231846CE
:1044F0000C37BD465DF8047B704700BFB01C002040
:1045000080B582B000AF0346FB80FB8818460449A3
:10451000FCF748FA034618460837BD4680BD00BF81
:104520000801002080B582B000AF0346FB80FB8805
:1045300018460449FCF736FA034618460837BD46C4
:1045400080BD00BF1001002080B584B000AF0346DD
:10455000FB800B4B1B68DB78FB73FB7B042B01D9C7
:10456000002309E0FB7BDA00064B1344FA8810466F
:104570001946FCF717FA034618461037BD4680BDAA
:10458000B01C00201801002080B483B000AF0246A8
:104590000B46FA71BB71BB79002B01D0022305E0F9
:1045A000FB79012B01D9022300E0002318460C37C8
:1045B000BD465DF8047B704780B483B000AF03460E
:1045C000FB80FB88002B05D1064B1B6808221A8252
:1045D000002300E0044B18460C37BD465DF8047B11
:1045E000704700BFB01C0020A800002080B483B03A
:1045F00000AF0346FB80FB88002B05D1064B1B68F0
:1046000008221A82002300E0044B18460C37BD46EE
:104610005DF8047B704700BFB01C0020A80000209C
:1046200080B582B000AF0120FEF7F0F90123FB80D6
:104630000C4BFA881A600C4B00221A80094B0A4A6C
:1046400012881A60094B00221A60074B4FF4E0529F
:104650001A80044B044A12881A600023184608374F
:10466000BD4680BD405C0040B41C0020445C00405E
:1046700080B485B000AF0023FB600023BB60002343
:104680003B60514B1B68FB800023FB600FE0FB6825
:104690009B0003F1804303F5B8431B689BB21946A6
:1046A0004A4BFA6843F82210FB680133FB60FB6851
:1046B000072BECD9FB8843F48063FB80424BFA88DC
:1046C0001A60FB8843F00103FB803F4BFA881A60B5
:1046D000FB8823F00103FB803B4BFA881A6000BF84
:1046E0003B4B1B689BB203F48063002BF8D0384B24
:1046F0004FF6FF321A600023FB600EE0FB689B0060
:1047000003F1804303F5B843304AF96852F8212099
:1047100092B21A60FB680133FB60FB68072BEDD98E
:10472000FB8843F00803FB80274BFA881A60264B6E
:104730001B68FB80FB8843F00403FB80224BFA8854
:104740001A60244B1B683B60224B1B68BB60BB6834
:1047500023F00303BB60BB6843F00103BB601D4B48
:10476000BA681A601C4B1C4A126942F004021A61B2
:10477000174B1B689BB203F48053002B07D130BF4B
:10478000154B154A126922F004021A6116E0104B0B
:104790004EF6FF721A600C4B1B68FB80FB8823F0FF
:1047A0000803FB80084BFA881A600A4B3A681A60C3
:1047B000094B094A126922F004021A611437BD46F6
:1047C0005DF8047B704700BF405C00402C1C00205B
:1047D000445C00400070004000ED00E080B582B015
:1047E00000AF094B1B68FB80FB8823F00403FB80B0
:1047F000054BFA881A60FEF7EFF8034B4FF43F427F
:104800001A600837BD4680BD405C004080B584B06A
:1048100000AF0346FB71FB79072B02D03E4BFA79C0
:104820001A703D4B1B78DBB2052B6DD801A252F8F4
:1048300023F000BF4D480008694800087B48000885
:1048400089480008AB480008CD480008334B1B6876
:10485000002B05D1FFF7C2FF2F4B06221A7057E03D
:104860002D4B05221A7053E0FFF7B8FF2A4B0422A4
:104870001A702A4B01221A604AE0274B02225A7012
:10488000254B03221A7043E0234B5B78DBB2013BDC
:10489000DAB2214B5A70204B5B78DBB2002B03D18C
:1048A0001D4B04221A7033E032E01D4B1B68FB8164
:1048B000FB8943F01003FB81194BFA891A60164BF0
:1048C00005221A70144B0A225A7021E0124B5B78B1
:1048D000DBB2013BDAB2104B5A700F4B5B78DBB2A4
:1048E000002B10D10E4B1B68FB81FB8923F01003BA
:1048F000FB810B4BFA891A60074B06221A70074B93
:1049000000221A6004E003E0034B06221A7000BF85
:104910001037BD4680BD00BF281C0020100C0020B1
:10492000405C004080B500AF012000F0E9FA03468A
:10493000002B05D0012000F0D5FA024B01221A60AD
:1049400080BD00BF4C1C002080B500AF082000F0E7
:10495000D7FA0346002B05D0082000F0C3FA024B1B
:1049600001221A6080BD00BF6C1C002080B500AF22
:104970004FF080400121FCF773FF0346002B24D049
:104980001248012100F0EEFA104800F007FB034640
:104990001A460F4BA3F82C220D4B9B69DBB20C4A35
:1049A000B2F82C220A4914335B000B449A80084B5E
:1049B0009B695A1C064B9A610448002100F0D2FA08
:1049C0004FF080400121FCF775FF80BD00240140BD
:1049D000140C002080B400AF0B4B1B685A1C0A4B10
:1049E0001A60094B1A68094BA3FB02135B09642187
:1049F00001FB03F3D31A002B02D1054B01221A60ED
:104A0000BD465DF8047B70472C0F00201F85EB51DD
:104A1000300F002080B500AF4FF4E13001F0DCFD35
:104A2000642001F029FE0348FFF714F80248FFF75D
:104A300011F880BD107500083C75000880B586B07F
:104A400000AFFDF7C3FA0A2001F016FE00F0DCF813
:104A50000346FB753B46184600F0E6F8FFF7DAFF21
:104A60003B6806481946FEF7CBFF7B6804481946A9
:104A7000FEF7C6FF1837BD4680BD00BF6C75000845
:104A80008C75000880B584B000AF0023FB60FFF791
:104A9000D5FFFBF7ADFB134B1B78002B02D1124B5C
:104AA000124A1A601248FEF7ABFF0F4B1B681846FC
:104AB000104900F061F80B4B01221A70FBF76AFCF9
:104AC000FDF724FF01F020FC0B4B01221A700A4B6A
:104AD0001B780A481946FEF793FF18461037BD4663
:104AE00080BD00BF380F0020C01C002000540040D3
:104AF00020760008801A0600E01C00203C760008A2
:104B000080B586B000AF1A480221FFF711F90346BD
:104B1000002B1BD016480221FFF7D4F900237B603D
:104B20000023BB6000233B730023BB730023FB7592
:104B30000023FB7300233B743B1D0D4800211A46E4
:104B4000FFF73EF80B4B02221A600EE008484FF4C4
:104B50008061FFF7EDF80346002B03D0054B0022E0
:104B60001A6002E0034B00221A601837BD4680BD70
:104B700000640040340F002080B588B000AF78603A
:104B800039601F4B7A681A604FF40010012100F061
:104B90001BF90920012100F0F9F802200021FFF79C
:104BA0001BFB1C23FB77C023BB830323BB7707F1CD
:104BB0001C0314481946FFF70BFA786800F046FE0C
:104BC0007868002100F026FF3B68FB6000233B82F1
:104BD0004BF6FF737B820023BB824FF48063FB8222
:104BE0004FF480433B8307F10C037868194600F0CB
:104BF0004FFE7868012100F00DFF2037BD4680BDD3
:104C0000C01C0020000C014080B400AF054B5B6865
:104C1000DBB203F00C03DBB21846BD465DF8047B43
:104C2000704700BF0010024080B487B000AF7860CA
:104C300000237B6100233B610023FB600023BB60FA
:104C40004D4B5B6803F00C037B617B69042B07D041
:104C5000082B09D0002B34D17B68484A1A6034E015
:104C60007B68464A1A6030E0434B5B6803F470137C
:104C70003B61414B5B6803F48033FB603B699B0CF9
:104C800002333B61FB68002B06D13B693C4A02FBC7
:104C900003F27B681A6013E0374B5B6803F4003360
:104CA000002B06D03B69364A02FB03F27B681A6090
:104CB00006E03B69314A02FB03F27B681A6004E0BC
:104CC00003E07B682D4A1A6000BF2B4B5B6803F042
:104CD000F0037B617B691B097B612A4A7B69134472
:104CE0001B78DBB2BB607B681A68BB68DA407B6804
:104CF0005A60214B5B6803F4E0637B617B691B0AAC
:104D00007B61204A7B6913441B78DBB2BB607B6804
:104D10005A68BB68DA407B689A60174B5B6803F49B
:104D200060537B617B69DB0A7B61164A7B691344B4
:104D30001B78DBB2BB607B685A68BB68DA407B6873
:104D4000DA600D4B5B6803F440437B617B699B0B2E
:104D50007B610D4A7B6913441B78DBB2BB607B68C7
:104D6000DA68BB68B2FBF3F27B681A611C37BD4698
:104D70005DF8047B704700BF0010024000127A000B
:104D800000093D003C0100204C01002080B483B0AC
:104D900000AF78600B46FB70FB78002B06D0094B08
:104DA000084A91697A680A439A6106E0054B054A08
:104DB00091697A68D2430A409A610C37BD465DF822
:104DC000047B70470010024080B483B000AF78606D
:104DD0000B46FB70FB78002B06D0094B084AD169C3
:104DE0007A680A43DA6106E0054B054AD1697A68B8
:104DF000D2430A40DA610C37BD465DF8047B704748
:104E00000010024080B483B000AF78600B46FB70A6
:104E1000FB78002B06D0094B084AD1687A680A4310
:104E2000DA6006E0054B054AD1687A68D2430A4049
:104E3000DA600C37BD465DF8047B70470010024015
:104E400080B483B000AF78600B46FB70FB78002B1A
:104E500006D0094B084A11697A680A431A6106E0CC
:104E6000054B054A11697A68D2430A401A610C372A
:104E7000BD465DF8047B70470010024080B582B0EB
:104E800000AF114B7B60114B3B6007E03B681A1D84
:104E90003A607A68111D796012681A603A680C4BA2
:104EA0009A42F3D30B480C494FF000028842B8BF36
:104EB00040F8042BFFF6FAAFFDF788F8FFF7E2FDA4
:104EC0000837BD4680BD00BF4079000800000020C3
:104ED000CC050020CC050020941D002080B400AF3C
:104EE000FEE700BF80B483B000AF7860034B7A6800
:104EF0005A610C37BD465DF8047B704700040140E1
:104F000080B485B000AF78600023FB730023BB60E2
:104F10000C4B1A687B681340BB600A4B5A697B686C
:104F20001340002B05D0BB68002B02D00123FB737C
:104F300001E00023FB73FB7B18461437BD465DF888
:104F4000047B70470004014080B483B000AF7860F8
:104F5000034B7A685A610C37BD465DF8047B704795
:104F60000004014080B483B000AF78600B46FB7052
:104F7000FB78002B06D07B689B6843F4A0027B681B
:104F80009A6005E07B689B6823F4A0027B689A60C6
:104F90000C37BD465DF8047B704700BF80B483B01A
:104FA00000AF78607B68DB6C9BB218460C37BD465F
:104FB0005DF8047B704700BF80B58CB000AF7860AF
:104FC00039600023FB620023BB6200237B62002365
:104FD0003B620023FB617B68FB617B681B8A9BB2A1
:104FE000FB62FA6A4CF6FF731340FB623B68DB8896
:104FF000FA6A1343FB62FB6A9AB27B681A827B6887
:105000009B899BB2FB62FA6A4EF6F3131340FB6274
:105010003B689A883B681B8913439AB23B685B895B
:1050200013439BB2FA6A1343FB62FB6A9AB27B6832
:105030009A817B689B8A9BB2FB62FA6A4FF6FF43B8
:105040001340FB623B689B89FA6A1343FB62FB6A6D
:105050009AB27B689A8207F108031846FFF7E4FDCD
:10506000FA69304B9A4202D17B69BB6201E03B692D
:10507000BB627B689B899BB29BB21BB2002B0CDA94
:10508000BA6A13469B0013449A001A443B681B6893
:105090005B00B2FBF3F37B620BE0BA6A13469B0042
:1050A00013449A001A443B681B689B00B2FBF3F35D
:1050B0007B627A6A1C4BA3FB02135B091B01FB6238
:1050C000FB6A1B09642202FB03F37A6AD31A3B6270
:1050D0007B689B899BB29BB21BB2002B0DDA3B6AAB
:1050E000DB0003F13202104BA3FB02135B0903F058
:1050F0000703FA6A1343FB620CE03B6A1B0103F1EE
:105100003202094BA3FB02135B0903F00F03FA6A97
:105110001343FB62FB6A9AB27B681A813037BD4643
:1051200080BD00BF003801401F85EB5180B483B0C3
:1051300000AF78600B46FB70FB78002B08D07B68D3
:105140009B899BB243F400539AB27B689A8107E033
:105150007B689B899BB223F400539AB27B689A8147
:105160000C37BD465DF8047B704700BF80B487B044
:1051700000AF786013460A467A807B7000233B615B
:105180000023FB600023BB6000237B617B687B61A5
:105190007B88DBB25B09DBB23B617B8803F01F03DA
:1051A000FB60FB68012202FA03F3BB603B69012B41
:1051B00003D17B690C337B6109E03B69022B03D18E
:1051C0007B6910337B6102E07B6914337B617B7800
:1051D000002B06D07B697A691168BA680A431A60A5
:1051E00006E07B697A691168BA68D2430A401A609E
:1051F0001C37BD465DF8047B704700BF80B483B0A8
:1052000000AF78600B467B807B88C3F308039AB2BB
:105210007B689A800C37BD465DF8047B704700BF01
:1052200080B483B000AF78607B689B889BB2C3F387
:1052300008039BB218460C37BD465DF8047B7047E7
:1052400080B485B000AF78600B467B800023FB7391
:105250007B681B889AB27B8813409BB2002B02D0DC
:105260000123FB7301E00023FB73FB7B184614371B
:10527000BD465DF8047B704780B487B000AF7860AE
:105280000B467B800023FB6000237B610023BB6017
:105290000023FB747B88DBB25B09DBB2BB607B88DD
:1052A00003F01F037B617B69012202FA03F37B6138
:1052B000BB68012B06D17B689B899BB27A6913403E
:1052C0007B610FE0BB68022B06D17B681B8A9BB217
:1052D0007A6913407B6105E07B689B8A9BB27A699F
:1052E00013407B617B881B0A9BB2FB60FB68012239
:1052F00002FA03F3FB607B681B889BB2FA681340D9
:10530000FB607B69002B05D0FB68002B02D00123DA
:10531000FB7401E00023FB74FB7C18461C37BD4680
:105320005DF8047B704700BF80B485B000AF786043
:105330000B467B800023FB810023BB817B881B0AFB
:10534000FB81FB89012202FA03F3BB81BB89DB43AA
:105350009AB27B681A801437BD465DF8047B7047AB
:1053600080B500AF2048602100F01AFA0346002BF8
:1053700038D000BF1C48012100F0F6F90346002B8D
:10538000F8D0194800F0E2F903461A46174B5A8044
:10539000164B9B68012B10D1144B5B681A04134BFE
:1053A0005B881A43114B5A60104B00229A600F4BD6
:1053B000DB685A1C0D4BDA6007E00C4B5B881A4621
:1053C0000A4B5A60094B01229A60084B9A68074BB6
:1053D0005B88074811461A46FEF712FB0248602117
:1053E00000F01AFA80BD00BF00380040E81C002021
:1053F0008476000880B400AF084B00221A60084B86
:105400004FF43F421A80074B054A12881A60002366
:105410001846BD465DF8047B704700BF445C004001
:10542000B41C0020405C004080B584B000AF03464F
:105430003960FB710023FB60FB7903F07F03DBB273
:105440001846FDF797FF0346FB60FB7903F07F03E7
:10545000DBB21846FDF714FF03461A46FB689BB201
:10546000386811461A4600F02FFBFB6818461037C3
:10547000BD4680BD80B500AF1020FFF741FD03465B
:10548000002B05D01020FFF72DFD024B01221A60E2
:1054900080BD00BF141D002080B500AF2020FFF7A5
:1054A0002FFD0346002B05D02020FFF71BFD024BEC
:1054B00001221A6080BD00BF101D002080B500AF22
:1054C0004FF40050FFF71CFD0346002B0BD006489D
:1054D0004FF48041FEF76EFE044B01221A704FF428
:1054E0000050FFF731FD80BD00100140181D002065
:1054F00080B582B000AF234B1B78012B3ED1224BED
:105500001B68002B03D11F4B00221A7036E01E4B84
:105510001B68402B11D91D4B1B68FB804023BB80AF
:105520001A4B1B6803F14002184B1A60164B1B689C
:10553000A3F14002144B1A600FE0144B1B68FB8070
:10554000114B1B68BB80114B1A680F4B1B681A4428
:105550000E4B1A600C4B00221A60FA880C4B1A444E
:10556000BB881046C0211A4600F074FABB8801209F
:105570001946FDF7A1FE0120FDF752FD0837BD4693
:1055800080BD00BF040C0020000C0020FC0B00209C
:105590001010002080B582B000AF03200849FFF74B
:1055A00043FF0346FB80FB88DBB205481946FDF745
:1055B000C3FA0320FDF75CFD0837BD4680BD00BF80
:1055C000381D002080B500AF084B1B68052B0BD1A0
:1055D000074B1B68591C064A1160052B04D1044B6C
:1055E00000221A60FDF7CEFA80BD00BF0C0C00202F
:1055F0003C0F002080B582B000AF78607A68174B0E
:105600009A420AD14FF480500121FFF7FBFB4FF47F
:1056100080500021FFF7F6FB1CE07A68104B9A429D
:105620000AD14FF480400121FFF70AFC4FF480407B
:105630000021FFF705FC0DE07A680A4B9A4209D178
:105640004FF400400121FFF7FBFB4FF40040002125
:10565000FFF7F6FB0837BD4680BD00BF00300140B4
:1056600000380040003C004080B485B000AF786056
:1056700039600023FB817B681B88FB81FB8903F475
:105680004153FB813B681A883B685B8813439AB29D
:105690003B689B8813439AB23B68DB8813439AB2FA
:1056A0003B681B8913439AB23B685B8913439AB2E8
:1056B0003B689B8913439AB23B68DB8913439AB2D8
:1056C000FB891343FB817B68FA891A807B689B8B7B
:1056D0009BB223F400639AB27B689A833B681A8A70
:1056E0007B681A821437BD465DF8047B704700BFA3
:1056F00080B483B000AF78600B46FB70FB78002B62
:1057000008D07B681B889BB243F040039AB27B6849
:105710001A8007E07B681B889BB223F040039AB293
:105720007B681A800C37BD465DF8047B704700BF6C
:1057300080B483B000AF78600B467B807B687A884A
:105740009A810C37BD465DF8047B704780B483B006
:1057500000AF78607B689B899BB218460C37BD46CA
:105760005DF8047B704700BF80B485B000AF7860FF
:105770000B467B800023FB737B681B899AB27B8876
:1057800013409BB2002B02D00123FB7301E00023E6
:10579000FB73FB7B18461437BD465DF8047B7047EE
:1057A00080B485B000AF78600B46FB700023FB73BC
:1057B0000023BB8100237B8100233B81FB7803F026
:1057C0000F03012202FA03F3BB81FB781B09DBB252
:1057D0007B817B89012202FA03F37B817B689B88B2
:1057E0009AB27B8913403B817B681B899AB2BB8943
:1057F00013409BB2002B05D03B89002B02D0012324
:10580000FB7301E00023FB73FB7B18461437BD4696
:105810005DF8047B704700BF80B485B000AF78604E
:105820000B46FB700023FB81FB7803F00F03012282
:1058300002FA03F3FB81FB89DB439AB27B681A818E
:105840001437BD465DF8047B704700BF80B582B059
:1058500000AF78607A680D4B9A420AD14FF400107D
:105860000121FFF7EDFA4FF400100021FFF7E8FAED
:1058700009E04FF480000121FFF7E2FA4FF48000C5
:105880000021FFF7DDFA0837BD4680BD0054004017
:1058900080B58AB000AF786039600023FB840023B4
:1058A0007B840423BB84574BFB617B689B88FB8410
:1058B000FB8C23F03F03FB8407F108031846FFF736
:1058C000B3F93B69FB61FA694F4BA3FB02139B0CD5
:1058D0007B84FA8C7B8C1343FB847B68FA8C9A80E4
:1058E0007B681B889BB223F001039AB27B681A8005
:1058F0000023FB843B681A68444B9A4215D83B68E6
:105900001B685B00FA69B2FBF3F3BB84BB8C032B0F
:1059100001D80423BB84FA8CBB8C1343FB847B8C9F
:1059200001339AB27B681A8440E03B68DA884BF610
:10593000FF739A4209D13B681A6813465B0013440F
:10594000FA69B2FBF3F3BB840EE03B681A681346B6
:105950009B0013449A001344FA69B2FBF3F3BB842F
:10596000BB8C43F48043BB84BB8CC3F30B03002B81
:1059700003D1BB8C43F00103BB84BA8CFB8C134373
:105980009BB26FEA43436FEA5343FB847B8C4FF433
:10599000967202FB03F31E4A82FB03129211DB177D
:1059A000D31A9BB201339AB27B681A847B68FA8C53
:1059B0009A837B681B889BB243F001039AB27B6891
:1059C0001A807B681B88FB84FB8C23F4816323F0A3
:1059D0000203FB843B689A883B685B8913439AB255
:1059E000FB8C1343FB847B68FA8C1A803B689A8992
:1059F0003B681B8913439AB27B681A812837BD46DE
:105A000080BD00BF00127A0083DE1B43A086010028
:105A1000D34D621080B483B000AF78600B46FB704A
:105A2000FB78002B08D07B681B889BB243F00103F6
:105A30009AB27B681A8007E07B681B889BB223F0D0
:105A400001039AB27B681A800C37BD465DF8047B6F
:105A5000704700BF80B489B000AF786013460A4633
:105A60007A803B803B8801335B107B617B8803F14C
:105A7000005303F540535B00BB617B69FB611BE096
:105A80007B681B783B617B6801337B607B681B789C
:105A90001B021A463B691343FB60BB699A1CBA613F
:105AA000FA6892B21A80BB690233BB617B6801332A
:105AB0007B60FB69013BFB61FB69002BE0D1243774
:105AC000BD465DF8047B704780B487B000AF786056
:105AD00013460A467A803B803B8801335B10FB60AB
